:100000000C9462000C949D030C9476030C948A006B
:100010000C948A000C948A000C948A000C948A0038
:100020000C948A000C948A000C948A000C948A0028
:100030000C948A000C948A000C948A000C948A0018
:100040000C942C030C948A000C94EA030C94C403C3
:100050000C948A000C948A000C948A000C948A00F8
:100060000C948A000C948A000000000023002600F3
:10007000290000000000240027002A0000000000E2
:10008000250028002B0004040404040404040202D4
:100090000202020203030303030301020408102007
:1000A0004080010204081020010204081020000012
:1000B0000008000201000003040700000000000027
:1000C0000000550511241FBECFEFD8E0DEBFCDBF25
:1000D00011E0A0E0B1E0E8E5FBE002C005900D9280
:1000E000A634B107D9F721E0A6E4B1E001C01D9222
:1000F000A13FB207E1F710E0C2E6D0E004C02197CB
:10010000FE010E94A405C136D107C9F70E941C0454
:100110000C94AA050C940000833081F028F48130FF
:1001200099F08230A9F008958730A9F08830C9F09D
:100130008430B1F4809180008F7D03C08091800075
:100140008F7780938000089584B58F7784BD08955C
:1001500084B58F7DFBCF8091B0008F778093B00006
:1001600008958091B0008F7DF9CF1F93CF93DF93D7
:10017000282F30E0F901E255FF4F8491F901E6564E
:10018000FF4FD491F901EA57FF4FC491CC23A9F056
:10019000162F81110E948C00EC2FF0E0EE0FFF1F54
:1001A000E458FF4FA591B4918FB7F894EC911111D9
:1001B00008C0D095DE23DC938FBFDF91CF911F91D4
:1001C0000895DE2BF8CFCF93DF9390E0FC01E65645
:1001D000FF4F24918A579F4FFC0184918823C9F0D7
:1001E00090E0880F991FFC01EE58FF4FA591B49144
:1001F000FC01E458FF4FC591D49161110DC09FB728
:10020000F8948C91209582238C93888128232883CD
:100210009FBFDF91CF910895623051F49FB7F8945A
:100220003C91822F809583238C93E8812E2BEFCFF6
:100230008FB7F894EC912E2B2C938FBFEACF3FB75A
:10024000F8948091500190915101A0915201B09188
:10025000530126B5A89B05C02F3F19F00196A11D9B
:10026000B11D3FBFBA2FA92F982F8827BC01CD0100
:10027000620F711D811D911D42E0660F771F881F5F
:10028000991F4A95D1F708958F929F92AF92BF928E
:10029000CF92DF92EF92FF920E941F014B015C010F
:1002A00084E6C82ED12CE12CF12C0E941F01681984
:1002B00079098A099B09683E734081059105A8F375
:1002C00021E0C21AD108E108F10888EE880E83E027
:1002D000981EA11CB11CC114D104E104F10429F73A
:1002E000FF90EF90DF90CF90BF90AF909F908F9056
:1002F00008950895AF92BF92CF92DF92EF92FF924E
:100300000F931F93CF93DF936C017B018B01040F3D
:10031000151FEB015E01AE18BF08C017D10759F0D9
:100320006991D601ED91FC910190F081E02DC6011B
:100330000995892B79F7C501DF91CF911F910F9115
:10034000FF90EF90DF90CF90BF90AF900895FC01A9
:10035000538D448D252F30E0842F90E0821B930B2A
:10036000541710F0CF96089501970895FC01918DD0
:10037000828D981761F0A28DAE0FBF2FB11D5D96D3
:100380008C91928D9F5F9F73928F90E008958FEF75
:100390009FEF0895FC01918D828D981731F0828D29
:1003A000E80FF11D858D90E008958FEF9FEF089580
:1003B000FC01918D228D892F90E0805C9F4F821BE4
:1003C00091098F739927089584E591E00E94D801DF
:1003D00021E0892B09F420E0822F089580E090E04D
:1003E000892B29F00E94E40181110C9400000895EA
:1003F000FC01A48DA80FB92FB11DA35ABF4F2C919A
:10040000848D90E001968F739927848FA689B78990
:100410002C93A089B1898C91837080648C93938D87
:10042000848D981306C00288F389E02D80818F7D2A
:1004300080830895EF92FF920F931F93CF93DF93E2
:10044000EC0181E0888F9B8D8C8D98131AC0E88910
:10045000F989808185FF15C09FB7F894EE89FF89DF
:100460006083E889F98980818370806480839FBF7D
:1004700081E090E0DF91CF911F910F91FF90EF907D
:100480000895F62E0B8D10E00F5F1F4F0F7311278D
:10049000E02E8C8D8E110CC00FB607FCFACFE889C8
:1004A000F989808185FFF5CFCE010E94F801F1CF57
:1004B000EB8DEC0FFD2FF11DE35AFF4FF0829FB73C
:1004C000F8940B8FEA89FB8980818062CFCFCF932C
:1004D000DF93EC01888D8823B9F0AA89BB89E8896C
:1004E000F9898C9185FD03C0808186FD0DC00FB612
:1004F00007FCF7CF8C9185FFF2CF808185FFEDCF90
:10050000CE010E94F801E9CFDF91CF9108950F93BA
:100510001F938FB7F89440914C0150914D01609119
:100520004E0170914F018FBF80914601909147011C
:10053000A0914801B09149018A019B01081B190B48
:100540002A0B3B0BD901C80187399105A105B105DB
:1005500030F080914A0191E0892780934A014093CD
:1005600046015093470160934801709349011F91E0
:100570000F910895FC0101900020E9F73197AF0138
:10058000481B590BBC0184E591E00C947A01CF9291
:10059000DF92EF92FF921F93CF93DF936C01162FA0
:1005A00090E2E92E91E0F92ED0E0C0E0D701ED9184
:1005B000FD917D01B6010C2E02C0769567950A94D7
:1005C000E2F76170772780810E94B5002196CA30DA
:1005D000D10561F7612F83E10E94B50060E082E1FF
:1005E0000E94B50060E081E10E94B50061E081E118
:1005F0000E94B50061E082E10E94B50060E082E106
:100600000E94B500E1EBF0E08491EDE9F0E0D491D7
:10061000E9E8F0E0C491CC2379F081110E948C00CC
:10062000EC2FF0E0EE0FFF1FE859FF4FA591B491BA
:10063000EC91ED23C1E009F4C0E061E082E10E94A9
:10064000B50081E01C1380E0DF91CF911F91FF90F6
:10065000EF90DF90CF9008951F920F920FB60F92F8
:1006600011242F933F938F939F93AF93BF938091C8
:100670004C0190914D01A0914E01B0914F013091EC
:100680004B0123E0230F2D3758F50196A11DB11D15
:1006900020934B0180934C0190934D01A0934E0108
:1006A000B0934F018091500190915101A09152015E
:1006B000B09153010196A11DB11D809350019093FB
:1006C0005101A0935201B0935301BF91AF919F91FB
:1006D0008F913F912F910F900FBE0F901F90189503
:1006E00026E8230F0296A11DB11DD2CF1F920F92B3
:1006F0000FB60F9211242F933F934F935F936F93F5
:100700007F938F939F93AF93BF93EF93FF93E0916A
:100710000201F09103010995FF91EF91BF91AF9113
:100720009F918F917F916F915F914F913F912F9109
:100730000F900FBE0F901F9018951F920F920FB63B
:100740000F9211242F933F934F935F936F937F9357
:100750008F939F93AF93BF93EF93FF93E09100012B
:10076000F09101010995FF91EF91BF91AF919F9198
:100770008F917F916F915F914F913F912F910F904A
:100780000FBE0F901F9018951F920F920FB60F92E9
:1007900011242F933F934F935F936F937F938F9386
:1007A0009F93AF93BF93EF93FF9384E591E00E94F3
:1007B000F801FF91EF91BF91AF919F918F917F9140
:1007C0006F915F914F913F912F910F900FBE0F90BE
:1007D0001F9018951F920F920FB60F9211242F930E
:1007E0008F939F93EF93FF93E0916401F0916501E4
:1007F0008081E0916A01F0916B0182FD1BC09081C4
:1008000080916D018F5F8F7320916E01821741F08F
:10081000E0916D01F0E0EC5AFE4F958F80936D01F1
:10082000FF91EF919F918F912F910F900FBE0F909D
:100830001F9018958081F4CFCF93DF93CDB7DEB7AB
:10084000A1970FB6F894DEBF0FBECDBF789484B5E4
:10085000826084BD84B5816084BD85B5826085BDBC
:1008600085B5816085BD80916E00816080936E004A
:10087000109281008091810082608093810080913C
:1008800081008160809381008091800081608093ED
:1008900080008091B10084608093B1008091B000AD
:1008A00081608093B00080917A00846080937A00A8
:1008B00080917A00826080937A0080917A008160D2
:1008C00080937A0080917A00806880937A001092F9
:1008D000C100E0916401F091650182E08083E091C4
:1008E0006001F09161011082E0916201F091630179
:1008F0008FEC808310926C01E0916801F0916901A6
:1009000086E08083E0916601F091670180818061DB
:100910008083E0916601F091670180818860808327
:10092000E0916601F0916701808180688083E091A9
:100930006601F091670180818F7D808362E082E0B3
:100940000E94E30061E08FE00E94E30061E080E14B
:100950000E94E30061E082E10E94E30061E083E144
:100960000E94E30061E081E10E94E30060E083E037
:100970000E94E30061E082E10E94B50061E081E154
:100980000E94B50000E211E0D801ED91FD918D01CA
:1009900061E080810E94E300B1E004331B07A1F70E
:1009A00087E892E0909301018093000180916900B3
:1009B000836080936900E89A8AE0882E912CA12CAC
:1009C000B12C90E0E92E90E0F92E80914A01882325
:1009D00009F449C060E08FE00E94B50010E000E03B
:1009E00080914A01882379F161E0C8010E94C70221
:1009F000811145C061E08FE00E94B50010924A016C
:100A000084E391E00E94BA02980150E040E019A20C
:100A10008E010F5D1F4FCA01B901A50194010E940B
:100A20008205605DF80162938F0121153105410552
:100A3000510589F7309719F0CF010E94BA0282E47C
:100A400091E00E94BA0280914A01882361F061E03E
:100A500080E10E94B5000E94440160E080E10E94B4
:100A6000B5000E944401E114F10409F4AECF0E94E4
:100A7000E401882309F4A9CF0E940000A6CF60E01A
:100A8000C8010E94C702882309F4B4CF61E0C801FD
:100A90000E94C702882309F4ADCF0F5F1F4F0115D5
:100AA000F8E01F0709F09CCFCECFE4E5F1E0138218
:100AB000128288EE93E0A0E0B0E084839583A68361
:100AC000B78382E191E09183808385EC90E0958704
:100AD000848784EC90E09787868780EC90E0918B08
:100AE000808B81EC90E0938B828B82EC90E0958BF5
:100AF000848B86EC90E0978B868B118E128E138EF2
:100B0000148E0895A1E21A2EAA1BBB1BFD010DC075
:100B1000AA1FBB1FEE1FFF1FA217B307E407F507AD
:100B200020F0A21BB30BE40BF50B661F771F881F89
:100B3000991F1A9469F760957095809590959B011F
:100B4000AC01BD01CF010895EE0FFF1F0590F49198
:080B5000E02D0994F894FFCF99
:100B5800790179010D0C0B0A090807060504000044
:100B680000001A027A01A7016702D801B601CA017A
:100B78000D010C010B010A01090108010701060119
:100B88000501040154657374206661696C65643AF3
:060B980020000D0A000020
:00000001FF
